{
  "_format": "hh-sol-artifact-1",
  "contractName": "Requester",
  "sourceName": "contracts/Requester.sol",
  "abi": [
    {
      "inputs": [
        {
          "internalType": "address",
          "name": "airnodeAddress",
          "type": "address"
        }
      ],
      "stateMutability": "nonpayable",
      "type": "constructor"
    },
    {
      "inputs": [],
      "name": "airnodeRrp",
      "outputs": [
        {
          "internalType": "contract IAirnodeRrp",
          "name": "",
          "type": "address"
        }
      ],
      "stateMutability": "view",
      "type": "function"
    },
    {
      "inputs": [
        {
          "internalType": "bytes32",
          "name": "",
          "type": "bytes32"
        }
      ],
      "name": "decodedData",
      "outputs": [
        {
          "internalType": "string",
          "name": "",
          "type": "string"
        }
      ],
      "stateMutability": "view",
      "type": "function"
    },
    {
      "inputs": [
        {
          "internalType": "bytes32",
          "name": "",
          "type": "bytes32"
        }
      ],
      "name": "encodedData",
      "outputs": [
        {
          "internalType": "bytes",
          "name": "",
          "type": "bytes"
        }
      ],
      "stateMutability": "view",
      "type": "function"
    },
    {
      "inputs": [
        {
          "internalType": "bytes32",
          "name": "requestId",
          "type": "bytes32"
        },
        {
          "internalType": "bytes",
          "name": "data",
          "type": "bytes"
        }
      ],
      "name": "fulfill",
      "outputs": [],
      "stateMutability": "nonpayable",
      "type": "function"
    },
    {
      "inputs": [
        {
          "internalType": "bytes32",
          "name": "",
          "type": "bytes32"
        }
      ],
      "name": "incomingFulfillments",
      "outputs": [
        {
          "internalType": "bool",
          "name": "",
          "type": "bool"
        }
      ],
      "stateMutability": "view",
      "type": "function"
    },
    {
      "inputs": [
        {
          "internalType": "address",
          "name": "airnode",
          "type": "address"
        },
        {
          "internalType": "bytes32",
          "name": "endpointId",
          "type": "bytes32"
        },
        {
          "internalType": "address",
          "name": "sponsor",
          "type": "address"
        },
        {
          "internalType": "address",
          "name": "sponsorWallet",
          "type": "address"
        },
        {
          "internalType": "bytes",
          "name": "parameters",
          "type": "bytes"
        }
      ],
      "name": "makeRequest",
      "outputs": [],
      "stateMutability": "nonpayable",
      "type": "function"
    }
  ],
  "bytecode": "0x60a06040523480156200001157600080fd5b50604051620010a4380380620010a4833981810160405281019062000037919062000150565b808073ffffffffffffffffffffffffffffffffffffffff1660808173ffffffffffffffffffffffffffffffffffffffff16815250508073ffffffffffffffffffffffffffffffffffffffff1663addf027c3060016040518363ffffffff1660e01b8152600401620000aa929190620001b0565b600060405180830381600087803b158015620000c557600080fd5b505af1158015620000da573d6000803e3d6000fd5b505050505050620001dd565b600080fd5b600073ffffffffffffffffffffffffffffffffffffffff82169050919050565b60006200011882620000eb565b9050919050565b6200012a816200010b565b81146200013657600080fd5b50565b6000815190506200014a816200011f565b92915050565b600060208284031215620001695762000168620000e6565b5b6000620001798482850162000139565b91505092915050565b6200018d816200010b565b82525050565b60008115159050919050565b620001aa8162000193565b82525050565b6000604082019050620001c7600083018562000182565b620001d660208301846200019f565b9392505050565b608051610e9d620002076000396000818161014f0152818161017301526104420152610e9d6000f3fe608060405234801561001057600080fd5b50600436106100625760003560e01c806371bab666146100675780637c1de7e114610085578063c7a14638146100a1578063d9163233146100d1578063dd2ae83f14610101578063e6080aa414610131575b600080fd5b61006f61014d565b60405161007c91906106de565b60405180910390f35b61009f600480360381019061009a91906107a8565b610171565b005b6100bb60048036038101906100b69190610808565b6102de565b6040516100c891906108ce565b60405180910390f35b6100eb60048036038101906100e69190610808565b61037e565b6040516100f89190610945565b60405180910390f35b61011b60048036038101906101169190610808565b61041e565b6040516101289190610982565b60405180910390f35b61014b600480360381019061014691906109db565b61043e565b005b7f000000000000000000000000000000000000000000000000000000000000000081565b7f000000000000000000000000000000000000000000000000000000000000000073ffffffffffffffffffffffffffffffffffffffff163373ffffffffffffffffffffffffffffffffffffffff16146101ff576040517f08c379a00000000000000000000000000000000000000000000000000000000081526004016101f690610ac1565b60405180910390fd5b60008084815260200190815260200160002060009054906101000a900460ff1661025e576040517f08c379a000000000000000000000000000000000000000000000000000000000815260040161025590610b2d565b60405180910390fd5b60008084815260200190815260200160002060006101000a81549060ff021916905581816001600086815260200190815260200160002091906102a2929190610536565b5081818101906102b29190610c7d565b6002600085815260200190815260200160002090805190602001906102d89291906105bc565b50505050565b600160205280600052604060002060009150905080546102fd90610cf5565b80601f016020809104026020016040519081016040528092919081815260200182805461032990610cf5565b80156103765780601f1061034b57610100808354040283529160200191610376565b820191906000526020600020905b81548152906001019060200180831161035957829003601f168201915b505050505081565b6002602052806000526040600020600091509050805461039d90610cf5565b80601f01602080910402602001604051908101604052809291908181526020018280546103c990610cf5565b80156104165780601f106103eb57610100808354040283529160200191610416565b820191906000526020600020905b8154815290600101906020018083116103f957829003601f168201915b505050505081565b60006020528060005260406000206000915054906101000a900460ff1681565b60007f000000000000000000000000000000000000000000000000000000000000000073ffffffffffffffffffffffffffffffffffffffff16636e6be03f8888888830637c1de7e160e01b8a8a6040518963ffffffff1660e01b81526004016104ae989796959493929190610dad565b602060405180830381600087803b1580156104c857600080fd5b505af11580156104dc573d6000803e3d6000fd5b505050506040513d601f19601f820116820180604052508101906105009190610e3a565b9050600160008083815260200190815260200160002060006101000a81548160ff02191690831515021790555050505050505050565b82805461054290610cf5565b90600052602060002090601f01602090048101928261056457600085556105ab565b82601f1061057d57803560ff19168380011785556105ab565b828001600101855582156105ab579182015b828111156105aa57823582559160200191906001019061058f565b5b5090506105b89190610642565b5090565b8280546105c890610cf5565b90600052602060002090601f0160209004810192826105ea5760008555610631565b82601f1061060357805160ff1916838001178555610631565b82800160010185558215610631579182015b82811115610630578251825591602001919060010190610615565b5b50905061063e9190610642565b5090565b5b8082111561065b576000816000905550600101610643565b5090565b600073ffffffffffffffffffffffffffffffffffffffff82169050919050565b6000819050919050565b60006106a461069f61069a8461065f565b61067f565b61065f565b9050919050565b60006106b682610689565b9050919050565b60006106c8826106ab565b9050919050565b6106d8816106bd565b82525050565b60006020820190506106f360008301846106cf565b92915050565b6000604051905090565b600080fd5b600080fd5b6000819050919050565b6107208161070d565b811461072b57600080fd5b50565b60008135905061073d81610717565b92915050565b600080fd5b600080fd5b600080fd5b60008083601f84011261076857610767610743565b5b8235905067ffffffffffffffff81111561078557610784610748565b5b6020830191508360018202830111156107a1576107a061074d565b5b9250929050565b6000806000604084860312156107c1576107c0610703565b5b60006107cf8682870161072e565b935050602084013567ffffffffffffffff8111156107f0576107ef610708565b5b6107fc86828701610752565b92509250509250925092565b60006020828403121561081e5761081d610703565b5b600061082c8482850161072e565b91505092915050565b600081519050919050565b600082825260208201905092915050565b60005b8381101561086f578082015181840152602081019050610854565b8381111561087e576000848401525b50505050565b6000601f19601f8301169050919050565b60006108a082610835565b6108aa8185610840565b93506108ba818560208601610851565b6108c381610884565b840191505092915050565b600060208201905081810360008301526108e88184610895565b905092915050565b600081519050919050565b600082825260208201905092915050565b6000610917826108f0565b61092181856108fb565b9350610931818560208601610851565b61093a81610884565b840191505092915050565b6000602082019050818103600083015261095f818461090c565b905092915050565b60008115159050919050565b61097c81610967565b82525050565b60006020820190506109976000830184610973565b92915050565b60006109a88261065f565b9050919050565b6109b88161099d565b81146109c357600080fd5b50565b6000813590506109d5816109af565b92915050565b60008060008060008060a087890312156109f8576109f7610703565b5b6000610a0689828a016109c6565b9650506020610a1789828a0161072e565b9550506040610a2889828a016109c6565b9450506060610a3989828a016109c6565b935050608087013567ffffffffffffffff811115610a5a57610a59610708565b5b610a6689828a01610752565b92509250509295509295509295565b7f43616c6c6572206e6f74204169726e6f64652052525000000000000000000000600082015250565b6000610aab6016836108fb565b9150610ab682610a75565b602082019050919050565b60006020820190508181036000830152610ada81610a9e565b9050919050565b7f4e6f20737563682072657175657374206d616465000000000000000000000000600082015250565b6000610b176014836108fb565b9150610b2282610ae1565b602082019050919050565b60006020820190508181036000830152610b4681610b0a565b9050919050565b600080fd5b7f4e487b7100000000000000000000000000000000000000000000000000000000600052604160045260246000fd5b610b8a82610884565b810181811067ffffffffffffffff82111715610ba957610ba8610b52565b5b80604052505050565b6000610bbc6106f9565b9050610bc88282610b81565b919050565b600067ffffffffffffffff821115610be857610be7610b52565b5b610bf182610884565b9050602081019050919050565b82818337600083830152505050565b6000610c20610c1b84610bcd565b610bb2565b905082815260208101848484011115610c3c57610c3b610b4d565b5b610c47848285610bfe565b509392505050565b600082601f830112610c6457610c63610743565b5b8135610c74848260208601610c0d565b91505092915050565b600060208284031215610c9357610c92610703565b5b600082013567ffffffffffffffff811115610cb157610cb0610708565b5b610cbd84828501610c4f565b91505092915050565b7f4e487b7100000000000000000000000000000000000000000000000000000000600052602260045260246000fd5b60006002820490506001821680610d0d57607f821691505b60208210811415610d2157610d20610cc6565b5b50919050565b610d308161099d565b82525050565b610d3f8161070d565b82525050565b60007fffffffff0000000000000000000000000000000000000000000000000000000082169050919050565b610d7a81610d45565b82525050565b6000610d8c8385610840565b9350610d99838584610bfe565b610da283610884565b840190509392505050565b600060e082019050610dc2600083018b610d27565b610dcf602083018a610d36565b610ddc6040830189610d27565b610de96060830188610d27565b610df66080830187610d27565b610e0360a0830186610d71565b81810360c0830152610e16818486610d80565b90509998505050505050505050565b600081519050610e3481610717565b92915050565b600060208284031215610e5057610e4f610703565b5b6000610e5e84828501610e25565b9150509291505056fea2646970667358221220c3bbe1910a8b653f9a156cc58b40fd293cf8ee56e76fba16154d919351246da664736f6c63430008090033",
  "linkReferences": {},
  "deployedLinkReferences": {}
}